:020000040800F2
:1000000098020020151800080513000807130008BF
:100010000B1300080F130008131300080000000062
:10002000000000000000000000000000171300089E
:1000300019130008000000001B1300081D1300081E
:100040002F1800082F1800082F1800082F18000874
:100050002F1800082F1800082F1800082F18000864
:100060002F1800082F1800082F1800082F18000854
:100070002F1800082F1800082F1800082F18000844
:100080002F1800082F1800082F1800082F18000834
:100090002F1800082F1800082F1800082F18000824
:1000A0002F1800082F1800082F1800082F18000814
:1000B0002F1800082F1800082F1800082F18000804
:1000C0002F1800082F1800082F1800082F180008F4
:1000D0002F1800082F1800081F1300082F180008F9
:1000E0002F1800082F1800082F1800082F180008D4
:1000F0002F1800082F1800082F1800082F180008C4
:100100002F1800082F1800082F1800082F180008B3
:100110002F1800082F1800082F1800082F180008A3
:100120002F1800082F1800082F1800082F18000893
:1001300000F002F800F03FF80AA090E8000C8244BA
:100140008344AAF10107DA4501D100F034F8AFF297
:10015000090EBAE80F0013F0010F18BFFB1A43F0A5
:1001600001031847701D0000901D0000103A24BFC5
:1001700078C878C1FAD8520724BF30C830C144BF0C
:1001800004680C607047000000230024002500264E
:10019000103A28BF78C1FBD8520728BF30C148BFEA
:1001A0000B607047732901F03786002070471FB538
:1001B0001FBD10B510BD01F05DFE1146FFF7F7FF42
:1001C00001F02AF801F07BFE03B4FFF7F2FF03BC55
:1001D00001F096F831490143314A1160704770B51A
:1001E000002100230F22C4780CB32D4C246804F4A2
:1001F000E064C4F5E064210AC1F10403CA40447814
:1002000004FA03F18478144021430901254C06784F
:10021000A155047804F01F050124AC4005786D1148
:100220004FF0E02606EB8505C5F8004109E00478AB
:1002300004F01F050124AC401B4D0678761145F8EB
:10024000264070BD194A0A400243154B1B1F1A6015
:10025000704739B1124A121D12680243104B1B1D20
:100260001A6006E00E4A121D126882430C4B1B1DD9
:100270001A607047042808D14FF0E021096941F065
:1002800004014FF0E022116107E04FF0E02109691D
:1002900021F004014FF0E022116170470000FA05DF
:1002A0000CED00E000E400E080E100E080FFFF1FD3
:1002B00010B50446CA48844208D10121042000F048
:1002C00029FD0021042000F025FD46E0C5488442B8
:1002D00008D10121082000F01DFD0021082000F0B8
:1002E00019FD3AE0C048844208D10121102000F0F5
:1002F00011FD0021102000F00DFD2EE0BB488442CE
:1003000008D10121202000F005FD0021202000F06F
:1003100001FD22E0B648844208D10121402000F0CE
:10032000F9FC0021402000F0F5FC16E0B1488442C1
:1003300008D10121802000F0EDFC0021802000F098
:10034000E9FC0AE0AC48844207D10121801500F0A5
:10035000E1FC0021A01500F0DDFC10BD10B501216D
:10036000084600F0D7FC0021012000F0D3FC10BDAE
:100370002DE9F0410246002500260020002300243C
:10038000002791F803C00CF00F0591F803C01CF092
:10039000100F03D091F802C04CEA050591F800C097
:1003A000BCF1000F31D0146800202BE04FF0010C9D
:1003B0000CFA00F3B1F800C00CEA03069E4220D10B
:1003C00083004FF00F0C0CFA03F7BC4305FA03FC53
:1003D0004CEA040491F803C0BCF1280F06D14FF099
:1003E000010C0CFA00FCC2F814C00AE091F803C03A
:1003F000BCF1480F05D14FF0010C0CFA00FCC2F81B
:1004000010C0401C0828D1D31460B1F800C0BCF162
:10041000FF0F34DD546800202EE000F1080C4FF08F
:10042000010808FA0CF3B1F800C00CEA03069E427A
:1004300021D183004FF00F0C0CFA03F7BC4305FAEF
:1004400003FC4CEA040491F803C0BCF1280F05D169
:1004500000F1080C08FA0CF8C2F8148091F803C0F7
:10046000BCF1480F07D100F1080C4FF0010808FA61
:100470000CF8C2F81080401C0828CED35460BDE8A8
:10048000F0814FF6FF710180022181700421C1705B
:1004900070470246002093680B4201D0012000E023
:1004A000002070470146886880B2704702460020ED
:1004B000D3680B4201D0012000E0002070470146C4
:1004C000C86880B2704701617047416170470AB1E6
:1004D000016100E041617047C16070474FF48032B4
:1004E0000A43826181618261826982697047024642
:1004F0000020424B18684FF68073184040EA021003
:1005000008433E4B186070473D49C8617047F0B5DD
:100510000A46002300240021002500F00046B6F121
:10052000004F02D1354EF16901E0344E7168C0F3DD
:10053000034583B200F44016B6F5401F08D121F000
:1005400070612E4E766826F070662C4F7E6012E049
:1005500000F48016B6F5801F06D1032606FA05F4CE
:10056000A14341F0706106E0460D360103FA06F63C
:10057000B14341F0706122B1460D360103FA06F62F
:10058000314300F00046B6F1004F02D11B4EF1613D
:1005900001E01A4E7160F0BD30B500228B071C0FD0
:1005A0000F2303FA04F2154B08338C1053F8243050
:1005B0009343124C08348D1044F8253023468C1098
:1005C00053F824308C07240F00FA04F423430B4C17
:1005D00008348D1044F8253030BD0A490860704752
:1005E00000080140000C01400010014000140140CF
:1005F00000180140001C01400020014000000140A3
:1006000000002042DC00204210B50446F748844236
:1006100009D10121480500F08AFB00214FF40010A8
:1006200000F085FB08E00121880500F080FB002137
:100630004FF4800000F07BFB10BD2DE9F04385B046
:1006400004460D460026B1460427DFF8A483A68899
:100650004FF6C0700640684600F0D5FADDF8088015
:10066000E448B8FBF0F01FFA80F946EA0906A680D4
:1006700020884FF6FE71084020800026DE49286859
:1006800088420CD828684000B8FBF0F087B2042FED
:1006900000DA04273E4309F10100208427E0E888BE
:1006A000A0F53F41FF3906D1286800EB4000B8FBB8
:1006B000F0F087B209E0286800EBC00101EB001000
:1006C000B8FBF0F087B247F480473805000D01D140
:1006D00047F0010747F4004006434FF4967009FBCA
:1006E00000F04FF47A7190FBF1F0401C2084A68357
:1006F000208840F00100208026884FF6F530064023
:10070000A8886989084306432680A889298908435F
:10071000208105B0BDE8F08341F2883101600021FD
:1007200081804BF6FF71C1800021018141814FF42E
:1007300080418181704721B1028842F0010202802C
:1007400004E002884FF6FE731A400280704721B120
:10075000828842F40062828004E082884FF2FF7354
:100760001A408280704721B1828842F48052828090
:1007700004E082884EF6FF731A408280704721B1F0
:10078000028842F48072028004E002884FF6FF6320
:100790001A400280704721B1028842F40072028040
:1007A00004E002884FF6FF531A400280704721B1DF
:1007B000028842F48062028004E002884FF6FF3330
:1007C0001A40028070470A46002181894FF6017362
:1007D000194002F0FE0319438181704721B18289DB
:1007E00042F00102828104E082894FF6FE731A40D2
:1007F0008281704721B1028842F04002028004E009
:1008000002884FF6BF731A40028070471AB183887E
:100810000B43838002E083888B438380704701828F
:1008200070470146088AC0B2704712B141F0010119
:1008300002E04FF6FE7319400182704708B5024688
:1008400000200090009200980844009000980088D2
:1008500008BD21B1028842F40042028003E0028810
:10086000C2F30E0202807047B1F5006F04D1028816
:1008700042F40062028004E002884FF2FF731A40E3
:1008800002807047B1F5005F04D1028842F4005243
:10089000028004E002884DF6FF731A400280704720
:1008A00021B1028842F48052028004E002884EF6B0
:1008B000FF731A4002807047B1F5006F04D10288BF
:1008C00042F40062028004E002884FF2FF731A4093
:1008D0000280704721B1028842F02002028004E0C9
:1008E00002884FF6DF731A40028070470146088B7A
:1008F0000012704721B1028842F01002028004E029
:1009000002884FF6EF731A400280704721B90288BF
:1009100042F08002028004E002884FF67F731A40A2
:1009200002807047B1F5804F05D0828B4BF6FF7384
:100930001A40828303E0828B42F4804282837047B4
:1009400070B502460024002500230020958A138BF1
:100950001B0445EA030626F07F4404EA01068E42A2
:1009600001D1012000E0002070BD10B5014600203B
:10097000002300228B8A0A8B120443EA020424F02B
:100980007F4010BD0CB50246002000230193009368
:1009900000920B0F019321F07F41019B1BB1009B43
:1009A0001433009303E0090C009B18330093009B61
:1009B0001B680B4201D0012000E000200CBD00228A
:1009C00021F07F42D3438382704730B50246002036
:1009D0000023948801F0E06504EA154321F07F418B
:1009E000948A0C420AD04BB1012008E00054004028
:1009F00000127A0040420F00A0860100002030BDA6
:100A0000002221F07F42D34383827047DD48006893
:100A100040F00100DB49086008464068DA490840B8
:100A2000D849486008460068D8490840D549086058
:100A30000846006820F4802008600846406820F4DA
:100A4000FE0048604FF41F0088607047CD49096878
:100A500021F48031CB4A11601146096821F48021CC
:100A60001160B0F5803F03D0B0F5802F0ED106E0C5
:100A7000C449096841F48031C24A116007E0C149A4
:100A8000096841F4A021BF4A116000E000BF00BF27
:100A9000704710B501460022002300204A11012AA8
:100AA00002D1B84C236806E0022A02D1B54C236A71
:100AB00001E0B44C636A01F01F02012494401C421F
:100AC00001D0012000E0002010BD38B500200090CA
:100AD0000024002500BF3120FFF7DBFF054600980A
:100AE000401C00900098B0F5704F01D0002DF2D05E
:100AF0003120FFF7CEFF08B1012400E0002420469A
:100B000038BD014600209F4A106820F0F80040EAF6
:100B1000C100106070479E4908607047024600207F
:100B2000984B586820F47C1042EA01031843954B17
:100B30005860704796490866704701460020914A00
:100B4000506820F003000843506070478D484068AB
:100B500000F00C007047014600208A4A506820F0DF
:100B6000F00008435060704701460020854A5068F5
:100B700020F4E06008435060704701460020814A3D
:100B8000506820F4605040EAC1005060704729B1BD
:100B90007C4A527A02437B4B5A7204E0794A527A79
:100BA0008243784B5A7270477A4908607047014611
:100BB0000020744A506820F4404008435060704759
:100BC0000021754A11706F4A82F82010012802D066
:100BD000042808D103E001216F4A117004E00521C7
:100BE0006D4A117000E000BF00BF70476B4908609C
:100BF00070476449096A0143624A11627047674954
:100C000044390860704730B50021002200240023D9
:100C10005C4D6D6805F00C0121B1042905D008294F
:100C200023D105E05E4D056022E05D4D05601FE0CB
:100C3000544D6D6805F47012524D6D6805F48034A2
:100C4000022505EB92421CB9564D554305600BE059
:100C50004C4D6D6815F4003F03D0524D554305606F
:100C600002E04F4D5543056002E04D4D056000BF69
:100C700000BF444D6D6805F0F00109094A4D6B5CF9
:100C80000568DD4045603F4D6D6805F4E061090A87
:100C9000454D6B5C4568DD4085603A4D6D6805F4F7
:100CA0006051C90A404D6B5C4568DD40C560354DFB
:100CB0006D6805F44041890B3C4D6B5CC568B5FB24
:100CC000F3F5056130BD29B12E4A526902432D4B1F
:100CD0005A6104E02B4A526982432A4B5A61704799
:100CE00029B1284A92690243264B9A6104E0254AB9
:100CF00092698243234B9A61704729B1214AD26994
:100D00000243204BDA6104E01E4AD26982431D4B44
:100D1000DA61704729B11B4AD2680243194BDA6085
:100D200004E0184AD2688243164BDA60704729B152
:100D3000144A12690243134B1A6104E0114A126902
:100D40008243104B1A61704714494039086070475C
:100D50000F49C86470470B49C87170470948406A19
:100D600040F0807007494862704701460020054AFC
:100D700092680A4201D0012000E00020704701493A
:100D800088727047001002400000FFF8FFFFF6FE77
:100D900000004242D80042422010024080044242F9
:100DA00000127A0000093D00000000201000002021
:100DB00010B50446FB48844209D101218803FFF79E
:100DC000A9FF00214FF48040FFF7A4FF32E0F6486E
:100DD000844209D101214804FFF7A9FF00214FF403
:100DE0000030FFF7A4FF25E0F048844209D101213B
:100DF0008804FFF79CFF00214FF48020FFF797FF46
:100E000018E0EB48844209D10121C804FFF78FFFA5
:100E100000214FF40020FFF78AFF0BE0E5488442F1
:100E200008D101210805FFF782FF00214FF480104F
:100E3000FFF77DFF10BD2DE9F04786B005460E4651
:100E40000024A24600BFA1460027B08900B100BF20
:100E50002F462C8A4CF6FF700440F08804432C8205
:100E6000AC894EF6F3100440B0883189084371898B
:100E700008430443AC81AC8A4FF6FF400440B0897C
:100E80000443AC8201A8FFF7BEFEC648874202D1E8
:100E9000DDF810A001E0DDF80CA0A88910F4004FE7
:100EA00008D00AEBCA0000EB0A1031684900B0FB19
:100EB000F1F807E00AEBCA0000EB0A10316889007C
:100EC000B0FBF1F86420B8FBF0F0040120096421C4
:100ED00001FB1089A88910F4004F08D0322000EBE4
:100EE000C900B0FBF1F000F00700044308E0322035
:100EF00000EB09106421B0FBF1F000F00F00044397
:100F00002C8106B0BDE8F0874FF4E131016000218B
:100F10008180C18001810C21418100218181704744
:100F200010B502460020108A4FF2FF0318400B88CC
:100F30004C8823438C882343CC8823431843108256
:100F400010BD0021018041808180C180704721B1A6
:100F5000828942F40052828104E082894DF6FF7357
:100F60001A4082817047F0B5034600240026002510
:100F70000020A1F510676A3F00D100BF1846C1F3F9
:100F8000421401F01F06012707FA06F5012C01D1D2
:100F90000C3004E0022C01D1103000E014301AB102
:100FA00007682F43076002E00768AF430760F0BDA2
:100FB0001AB1838A0B43838202E0838A8B43838244
:100FC0007047028A4FF6F0731A400282028A0A437F
:100FD0000282704782894FF2FF731A4082818289B0
:100FE0000A438281704721B1828942F002028281E4
:100FF00004E082894FF6FD731A4082817047028AAD
:101000004FF6DF731A400282028A0A430282704757
:1010100021B1028A42F48042028204E0028A4BF645
:10102000FF731A4002827047C1F308028280704742
:1010300001468888C0F308007047818941F00101AA
:1010400081817047028BD2B20283028B42EA012275
:1010500002837047028B02F47F420283028B0A43B1
:101060000283704721B1828A42F02002828204E02A
:10107000828A4FF6DF731A408282704721B1828ADA
:1010800042F01002828204E0828A4FF6EF731A4027
:101090008282704721B1828A42F00802828204E093
:1010A000828A4FF6F7731A408282704721B1828993
:1010B00042F40042828103E08289C2F30E028281FF
:1010C000704721B1828A42F40062828204E0828AFF
:1010D0004FF2FF731A4082827047828A4FF6FB7389
:1010E0001A408282828A0A438282704721B1828AB0
:1010F00042F00202828204E0828A4FF6FD731A40B7
:101100008282704702460020B1F5007F00D100BF07
:1011100013880B4201D0012000E00020704701F449
:101120000072B2F5007F00D100BFCA430280704751
:1011300070B502460024002300250020A1F51066AA
:101140006A3E00D100BFC1F3421501F01F03012622
:1011500006FA03F3012D02D19689334006E0022DF1
:1011600002D1168A334001E0968A33400C120126E0
:1011700006FA04F41688344013B10CB1012000E0E3
:10118000002070BD10B500220023A1F510646A3C58
:1011900000D100BF0A1201249440A3B2DC430480B2
:1011A00010BD0000003801400044004000480040ED
:1011B000004C00400050004008B501211020FFF70E
:1011C0008FFD4FF40070ADF8000003208DF8020091
:1011D00010208DF8030069461C48FFF7C9F84FF44A
:1011E00000711A48FFF76FF901210420FFF778FD1D
:1011F0004FF48070ADF8000003208DF8020010203D
:101200008DF8030069461248FFF7B2F84FF4807179
:101210000F48FFF758F908BD00F028F9FFF7CCFF99
:10122000482000F027FD00F029F90DE009A000F0AA
:1012300075FD14A117A000F071FD1CA000F06EFD5B
:101240004FF47A7000F0EAF9F0E700000010014076
:10125000000801400D0A202B2B2B2B2B2B2B2B2B8B
:101260002B2B2B2B2B2B2B2B2B2B2B2B2B2B2B2BCE
:101270002B2B2B2B2B2B2B2B2B2B2B2B2B2B2B20C9
:101280000A0000003030312E3030312E3030322E16
:10129000303031000D0A2054657374207665727306
:1012A000696F6E202573200A000000000D0A202BB4
:1012B0002B2B2B2B2B2B2B2B2B2B2B2B2B2B2B2B7E
:1012C0002B2B2B2B2B2B2B2B2B2B2B2B2B2B2B2B6E
:1012D0002B2B2B2B2B2B2B200D0A000070B504463B
:1012E0000D46E0B200F0CEF8002070BD01464FF090
:1012F000FF30704710B50446E0B200F0C3F810BDEF
:1013000000BFFEE7704700BFFEE700BFFEE700BF7B
:10131000FEE700BFFEE7704770477047704710B5A3
:1013200040F225510548FFF703FF30B10348FFF7AE
:101330007FFEC4B2204600F0A5F810BD0044004076
:1013400008B501211020FFF7CBFC4FF4C070ADF8B9
:10135000000003208DF8020010208DF8030069467C
:10136000A548FFF705F84FF4C071A348FFF7ABF8A5
:1013700008BDA248806940F00800A0498861A048E3
:10138000006820F07F409E4908600846006840F0F1
:101390004C5008609A480C30006840F0C0009849F2
:1013A0000C310860704700B587B001214FF482709E
:1013B000FFF796FC01214804FFF79FFC4FF40070F3
:1013C000ADF8180003208DF81A0018208DF81B00C6
:1013D00006A98C48FEF7CCFF0420ADF818001820B1
:1013E0008DF81B0006A98748FEF7C2FF0820ADF85C
:1013F000180004208DF81B0006A98248FEF7B8FFEC
:1014000001214804FFF793FC00214FF40030FFF75F
:101410008EFC4FF4165002900020ADF80C00ADF891
:101420000E00ADF81000ADF814000C20ADF812005D
:1014300002A97548FFF7FFFC26208DF80400032061
:101440008DF805008DF8060001208DF8070001A831
:10145000FEF7C5FE012240F225516B48FFF783FDE0
:1014600001216948FFF773FD07B000BD10B5FFF714
:101470009AFFFFF77EFFFFF763FF10BD10B500F086
:101480006DFA10BD10B5044600BF80215E48FFF71D
:1014900039FE0028F9D021465B48FFF7C5FD10BD95
:1014A00008B501210820FFF71BFC01214805FFF7C3
:1014B00024FCC020ADF8000003208DF802001C20A1
:1014C0008DF8030069464E48FEF752FF08BD1FB570
:1014D0000020ADF804004BF6FF70ADF806000A20BE
:1014E000ADF808004FF48060ADF80A000001ADF8D7
:1014F0000C0049F64040009069464448FFF79DF8CB
:1015000001214248FFF717F91FBD2DE9F0410546BB
:101510000F4616461C4600BF4FF400313B48FFF70C
:1015200031FA0028F8D101213848FFF728F900BF27
:1015300037493648FFF704FA0028F9D00022394627
:101540003248FFF772F900BF32493048FFF7F8F927
:101550000028F9D001212D48FFF7EDF831462B483E
:10156000FFF75DF900BF2B49891C2848FFF7E8F910
:101570000028F8D001212548FFF701F900BF2449D0
:101580002248FFF7DDF90028F9D0012239461F482B
:10159000FFF74BF900BF1E49491C1C48FFF7D0F963
:1015A0000028F8D015E03CB900211848FFF7FFF8F3
:1015B00001211648FFF7EFF815493F311348FFF7AF
:1015C000BFF930B11148FFF72CF928706D1C601E6F
:1015D00084B2002CE7D101210C48FFF7E8F8BDE800
:1015E000F08100F013FA06E0D62000F0D2FA00F005
:1015F00053FA09490870F7E7001001400010024053
:10160000000C01400008014000440040005400402C
:1016100001000300820007001800002041F2A453DB
:1016200000FB03F2002100BF914200D101E0491C00
:10163000FAE700BF704700000CB500200190009051
:101640006B48006840F480306949086000BF684812
:10165000006800F4003000900198401C0190009850
:1016600018B90198B0F5704FF1D16148006810F4D5
:10167000003F02D00120009001E00020009000987F
:10168000012842D15B48006840F0100059490860C9
:101690000846006820F0030008600846006840F033
:1016A0000200086052484068514948600846406856
:1016B00048600846406840F48060486008464068DA
:1016C00020F47C1048600846406840F4E810486008
:1016D0000846006840F08070086000BF4448006819
:1016E00010F0007FFAD04248406820F003004049E3
:1016F00048600846406840F00200486000BF3C482F
:10170000406800F00C000828F9D10CBD10B5FFF7B7
:1017100093FF10BD10B53648006840F00100344911
:101720000860084640683449084031494860084626
:101730000068324908402E4908600846006820F4D5
:10174000802008600846406820F4FE0048604FF49E
:101750001F008860FFF7DAFF4FF00060284908603B
:1017600010BD10B5002100200022214B5B6803F062
:101770000C0121B1042906D0082928D107E0214B0A
:10178000214C236027E01F4B1F4C236023E0184BA4
:101790005B6803F47010164B5B6803F4803202231D
:1017A00003EB904022B9194B4343174C23600DE0E3
:1017B0000F4B5B6813F4003F04D0144B4343124CAF
:1017C000236003E00F4B43430F4C236003E00D4BBA
:1017D0000D4C236000BF00BF054B5B68C3F30313D0
:1017E0000B4CE15C084B1B68CB40074C236010BDE1
:1017F00000100240002002400000FFF8FFFFF6FE4C
:1018000008ED00E000127A001C00002000093D00F5
:10181000200000200948804709480047FEE7FEE70E
:10182000FEE7FEE7FEE7FEE7FEE7FEE7FEE7FEE790
:1018300004480549034A054B704700001517000886
:101840003101000898000020980200209800002034
:1018500008B501230F223D216846FFF756FE9DF88B
:10186000000008BD08B501230F22D7216846FFF705
:101870004CFE9DF8000008BD70B5FFF7F3FF05466C
:101880000A20FFF7CBFEFFF7E3FF06460A20FFF72B
:10189000C5FE682D03D13D2E01D1012400E00024B6
:1018A000204670BD08B5A1200090012320223C21D4
:1018B0006846FFF796FE0A20FFF7B0FE08BD08B5A0
:1018C000C120009001231022D6216846FFF789FE2F
:1018D0000A20FFF7A3FE0020009001231122D62149
:1018E0006846FFF77EFE0A20FFF798FE0020009072
:1018F00001231222D6216846FFF773FE0A20FFF764
:101900008DFE3820009001231E22D6216846FFF765
:1019100068FE0A20FFF782FE0020009001231322B8
:10192000D6216846FFF75DFE0A20FFF777FE3820D4
:10193000009001231F22D6216846FFF752FE0A209D
:10194000FFF76CFED020009001232022D6216846AC
:10195000FFF747FE0A20FFF761FE08BD10B5FFF74D
:10196000AEFFFFF79FFF10BD7CB504460D4616463F
:101970000623324629466846FFF7C7FD9DF800005A
:101980009DF8011040EA012020609DF802009DF8BA
:10199000031040EA012060609DF804009DF80510E6
:1019A00040EA0120A0607CBD10B504461822D72172
:1019B0002046FFF7D9FF10BD10B504462822D721D5
:1019C0002046FFF7D1FF10BD10B5044628223D2167
:1019D0002046FFF7C9FF10BDA048806940F008000D
:1019E0009E4988619E48006820F07F409C490860BD
:1019F0000846006840F04C50086099480C30006878
:101A000040F0C00096490C310860704710B594480A
:101A1000006820F07040924908600846006840F075
:101A20004050086001208F4908608F49C1F8980133
:101A30004FF0050000F050F900208A4908604FF08F
:101A4000060000F049F900208749C1F898010520F7
:101A500000F042F910BD10B58148006820F07040D8
:101A60007F4908600846006840F040500860002048
:101A70007E4908607C49C1F89C014FF0060000F0E7
:101A80002BF90120794908607749C1F89C014FF092
:101A9000060000F021F910BD10B5002400207349A4
:101AA00008606F48006820F070406D490860084683
:101AB000006840F0004008604FF001006A49C1F83A
:101AC0009C014FF0020000F007F90120674908600F
:101AD0004FF0020000F000F907E0601CC4B2FA2CDD
:101AE00003DDFFF7B8FF012010BD61480068002842
:101AF000F3D15E4908604FF0020000F0EDF80020DD
:101B0000F2E710B50020594908605548006820F0F8
:101B10007040534908600846006840F04050086033
:101B20004FF000005049C1F89C014FF0020000F056
:101B3000D3F801204D4908604FF0050000F0CCF8C3
:101B400000204949C1F8980110BD10B5002047494F
:101B500008604348006820F070404149086008462A
:101B6000006840F0405008604FF001003E49C1F865
:101B70009C014FF0020000F0AFF801203B490860E3
:101B80004FF0050000F0A8F800203749C1F898018F
:101B900010BD70B504463248006820F070403049EE
:101BA00008600846006840F04050086000202F4957
:101BB00008604FF0020000F08FF800251AE0E009FD
:101BC000284908604FEA44604FEA10644FF0020071
:101BD00000F082F801202449C1F89801022000F0A9
:101BE0007BF80020214908604FF0020000F074F8F3
:101BF000681CC5B2082DE2DB70BD70B50546002437
:101C00001748006820F070401549086008460068D1
:101C100040F000400860002616E0002013490860EC
:101C20004FF0020000F058F801200F49C1F8980168
:101C30006006040E0E48006808B1601CC4B20120A2
:101C400000F04AF8701CC6B2082EE6DB15B9FFF7A3
:101C50007CFF01E0FFF755FF204670BD00100240F9
:101C6000000C01409C812142008021429881214248
:101C70001C8121424FF0E021096921F004014FF05D
:101C8000E02211610146C21700EB5272C2F3C70293
:101C90001F4B1A701946097801EB81011D4A11800A
:101CA000704701461B4A12884A434FF0E0235A61AD
:101CB00000229A6101221A6100BF4FF0E0221069F0
:101CC00010F0010F02D010F4803FF6D000224FF048
:101CD000E0231A619A61704701460E4A12884A430E
:101CE0004FF0E0235A6100229A6101221A6100BF7D
:101CF0004FF0E022106910F0010F02D010F4803F85
:101D0000F6D000224FF0E0231A619A61704700007C
:101D10003000002032000020704700000FB404495A
:101D200010B503AA029800F07BF810BC5DF814FB14
:101D3000140000202DE9F0410E46044600202062E8
:101D40002046E168884730B3252805D0D4E9012131
:101D50009047206A401CF2E7E16820460027884748
:101D6000050018D0A5F14100192802D820354FF4FC
:101D700000673246294620462760FEF713FA40B135
:101D8000012804D0F61D26F007060836D8E7361DD0
:101D9000D6E72846DAE7206ABDE8F08170B50C4640
:101DA0000546012A05D02878800600D5EA69002377
:101DB00002E0012305E05B1C934202D2E05C0028B4
:101DC000F9D1A869E618C01AA861286A18442862DF
:101DD0002846AFF3008004E0D5E9012114F8010B97
:101DE0009047B442F8D32846AFF3008070BD7047E7
:101DF0007047704710B5436913B1AFF3008001E03D
:101E0000FFF7CCFF012010BD127800F124010A7009
:101E100000224A700122EDE711684FF0FF32E9E736
:101E2000074B70B50D467B4400F011F80446284678
:101E3000FFF75CFA10B14FF0FF3070BD204670BD67
:101E4000B3F4FFFF01694A1C02610878704700B5CE
:101E50008FB0CDE901310021059105497944CDE9E3
:101E6000031011466846FFF765FF0FB000BD000084
:101E7000E5FFFFFF754600F029F8AE46050069460C
:101E8000534620F00700854618B020B5FFF7D0FC78
:101E9000BDE820404FF000064FF000074FF000086B
:101EA0004FF0000B21F00701AC46ACE8C009ACE8EC
:101EB000C009ACE8C009ACE8C0098D4670470446CB
:101EC000AFF300802046FEF77FF90000004870471E
:101ED00034000020F41E0008000000203400000040
:101EE0006C010008281F0008340000206402000074
:101EF000880100080000000001020304010203043D
:101F0000060708090204060800000000000000009F
:101F100000A24A04000000000000000001020304C7
:081F200006070809000000009B
:0400000508000131BD
:00000001FF
